{
	"contracts/Require.sol": {
		"Require": {
			"abi": [
				{
					"inputs": [
						{
							"internalType": "uint256",
							"name": "_input",
							"type": "uint256"
						}
					],
					"name": "checkInput",
					"outputs": [
						{
							"internalType": "string",
							"name": "",
							"type": "string"
						}
					],
					"stateMutability": "pure",
					"type": "function"
				},
				{
					"inputs": [
						{
							"internalType": "uint256",
							"name": "_input",
							"type": "uint256"
						}
					],
					"name": "odd",
					"outputs": [
						{
							"internalType": "bool",
							"name": "",
							"type": "bool"
						}
					],
					"stateMutability": "pure",
					"type": "function"
				}
			],
			"devdoc": {
				"kind": "dev",
				"methods": {},
				"version": 1
			},
			"evm": {
				"assembly": "    /* \"contracts/Require.sol\":60:438  contract Require{... */\n  mstore(0x40, 0x80)\n  callvalue\n  dup1\n  iszero\n  tag_1\n  jumpi\n  0x00\n  dup1\n  revert\ntag_1:\n  pop\n  dataSize(sub_0)\n  dup1\n  dataOffset(sub_0)\n  0x00\n  codecopy\n  0x00\n  return\nstop\n\nsub_0: assembly {\n        /* \"contracts/Require.sol\":60:438  contract Require{... */\n      mstore(0x40, 0x80)\n      callvalue\n      dup1\n      iszero\n      tag_1\n      jumpi\n      0x00\n      dup1\n      revert\n    tag_1:\n      pop\n      jumpi(tag_2, lt(calldatasize, 0x04))\n      shr(0xe0, calldataload(0x00))\n      dup1\n      0x021b8a7f\n      eq\n      tag_3\n      jumpi\n      dup1\n      0x0602c36a\n      eq\n      tag_4\n      jumpi\n    tag_2:\n      0x00\n      dup1\n      revert\n        /* \"contracts/Require.sol\":83:294  function checkInput(uint256 _input) public pure returns(string memory){... */\n    tag_3:\n      tag_5\n      0x04\n      dup1\n      calldatasize\n      sub\n      dup2\n      add\n      swap1\n      tag_6\n      swap2\n      swap1\n      tag_7\n      jump\t// in\n    tag_6:\n      tag_8\n      jump\t// in\n    tag_5:\n      mload(0x40)\n      tag_9\n      swap2\n      swap1\n      tag_10\n      jump\t// in\n    tag_9:\n      mload(0x40)\n      dup1\n      swap2\n      sub\n      swap1\n      return\n        /* \"contracts/Require.sol\":302:435  function odd(uint256 _input) public pure returns(bool){... */\n    tag_4:\n      tag_11\n      0x04\n      dup1\n      calldatasize\n      sub\n      dup2\n      add\n      swap1\n      tag_12\n      swap2\n      swap1\n      tag_7\n      jump\t// in\n    tag_12:\n      tag_13\n      jump\t// in\n    tag_11:\n      mload(0x40)\n      tag_14\n      swap2\n      swap1\n      tag_15\n      jump\t// in\n    tag_14:\n      mload(0x40)\n      dup1\n      swap2\n      sub\n      swap1\n      return\n        /* \"contracts/Require.sol\":83:294  function checkInput(uint256 _input) public pure returns(string memory){... */\n    tag_8:\n        /* \"contracts/Require.sol\":139:152  string memory */\n      0x60\n        /* \"contracts/Require.sol\":182:183  0 */\n      0x00\n        /* \"contracts/Require.sol\":172:178  _input */\n      dup3\n        /* \"contracts/Require.sol\":172:183  _input >= 0 */\n      lt\n      iszero\n        /* \"contracts/Require.sol\":164:201  require(_input >= 0, \"invalid uint8\") */\n      tag_17\n      jumpi\n      mload(0x40)\n      0x08c379a000000000000000000000000000000000000000000000000000000000\n      dup2\n      mstore\n      0x04\n      add\n      tag_18\n      swap1\n      tag_19\n      jump\t// in\n    tag_18:\n      mload(0x40)\n      dup1\n      swap2\n      sub\n      swap1\n      revert\n    tag_17:\n        /* \"contracts/Require.sol\":230:233  255 */\n      0xff\n        /* \"contracts/Require.sol\":220:226  _input */\n      dup3\n        /* \"contracts/Require.sol\":220:233  _input <= 255 */\n      gt\n      iszero\n        /* \"contracts/Require.sol\":212:250  require(_input <= 255, \"invalid uint\") */\n      tag_20\n      jumpi\n      mload(0x40)\n      0x08c379a000000000000000000000000000000000000000000000000000000000\n      dup2\n      mstore\n      0x04\n      add\n      tag_21\n      swap1\n      tag_22\n      jump\t// in\n    tag_21:\n      mload(0x40)\n      dup1\n      swap2\n      sub\n      swap1\n      revert\n    tag_20:\n        /* \"contracts/Require.sol\":263:286  return \"input in uint8\" */\n      mload(0x40)\n      dup1\n      0x40\n      add\n      0x40\n      mstore\n      dup1\n      0x0e\n      dup2\n      mstore\n      0x20\n      add\n      0x696e70757420696e2075696e7438000000000000000000000000000000000000\n      dup2\n      mstore\n      pop\n      swap1\n      pop\n        /* \"contracts/Require.sol\":83:294  function checkInput(uint256 _input) public pure returns(string memory){... */\n      swap2\n      swap1\n      pop\n      jump\t// out\n        /* \"contracts/Require.sol\":302:435  function odd(uint256 _input) public pure returns(bool){... */\n    tag_13:\n        /* \"contracts/Require.sol\":351:355  bool */\n      0x00\n        /* \"contracts/Require.sol\":387:388  0 */\n      dup1\n        /* \"contracts/Require.sol\":382:383  2 */\n      0x02\n        /* \"contracts/Require.sol\":375:381  _input */\n      dup4\n        /* \"contracts/Require.sol\":375:383  _input%2 */\n      tag_24\n      swap2\n      swap1\n      tag_25\n      jump\t// in\n    tag_24:\n        /* \"contracts/Require.sol\":375:388  _input%2 != 0 */\n      sub\n        /* \"contracts/Require.sol\":367:405  require(_input%2 != 0,\"input is even\") */\n      tag_26\n      jumpi\n      mload(0x40)\n      0x08c379a000000000000000000000000000000000000000000000000000000000\n      dup2\n      mstore\n      0x04\n      add\n      tag_27\n      swap1\n      tag_28\n      jump\t// in\n    tag_27:\n      mload(0x40)\n      dup1\n      swap2\n      sub\n      swap1\n      revert\n    tag_26:\n        /* \"contracts/Require.sol\":423:427  true */\n      0x01\n        /* \"contracts/Require.sol\":416:427  return true */\n      swap1\n      pop\n        /* \"contracts/Require.sol\":302:435  function odd(uint256 _input) public pure returns(bool){... */\n      swap2\n      swap1\n      pop\n      jump\t// out\n        /* \"#utility.yul\":88:205   */\n    tag_30:\n        /* \"#utility.yul\":197:198   */\n      0x00\n        /* \"#utility.yul\":194:195   */\n      dup1\n        /* \"#utility.yul\":187:199   */\n      revert\n        /* \"#utility.yul\":334:411   */\n    tag_32:\n        /* \"#utility.yul\":371:378   */\n      0x00\n        /* \"#utility.yul\":400:405   */\n      dup2\n        /* \"#utility.yul\":389:405   */\n      swap1\n      pop\n        /* \"#utility.yul\":334:411   */\n      swap2\n      swap1\n      pop\n      jump\t// out\n        /* \"#utility.yul\":417:539   */\n    tag_33:\n        /* \"#utility.yul\":490:514   */\n      tag_55\n        /* \"#utility.yul\":508:513   */\n      dup2\n        /* \"#utility.yul\":490:514   */\n      tag_32\n      jump\t// in\n    tag_55:\n        /* \"#utility.yul\":483:488   */\n      dup2\n        /* \"#utility.yul\":480:515   */\n      eq\n        /* \"#utility.yul\":470:533   */\n      tag_56\n      jumpi\n        /* \"#utility.yul\":529:530   */\n      0x00\n        /* \"#utility.yul\":526:527   */\n      dup1\n        /* \"#utility.yul\":519:531   */\n      revert\n        /* \"#utility.yul\":470:533   */\n    tag_56:\n        /* \"#utility.yul\":417:539   */\n      pop\n      jump\t// out\n        /* \"#utility.yul\":545:684   */\n    tag_34:\n        /* \"#utility.yul\":591:596   */\n      0x00\n        /* \"#utility.yul\":629:635   */\n      dup2\n        /* \"#utility.yul\":616:636   */\n      calldataload\n        /* \"#utility.yul\":607:636   */\n      swap1\n      pop\n        /* \"#utility.yul\":645:678   */\n      tag_58\n        /* \"#utility.yul\":672:677   */\n      dup2\n        /* \"#utility.yul\":645:678   */\n      tag_33\n      jump\t// in\n    tag_58:\n        /* \"#utility.yul\":545:684   */\n      swap3\n      swap2\n      pop\n      pop\n      jump\t// out\n        /* \"#utility.yul\":690:1019   */\n    tag_7:\n        /* \"#utility.yul\":749:755   */\n      0x00\n        /* \"#utility.yul\":798:800   */\n      0x20\n        /* \"#utility.yul\":786:795   */\n      dup3\n        /* \"#utility.yul\":777:784   */\n      dup5\n        /* \"#utility.yul\":773:796   */\n      sub\n        /* \"#utility.yul\":769:801   */\n      slt\n        /* \"#utility.yul\":766:885   */\n      iszero\n      tag_60\n      jumpi\n        /* \"#utility.yul\":804:883   */\n      tag_61\n      tag_30\n      jump\t// in\n    tag_61:\n        /* \"#utility.yul\":766:885   */\n    tag_60:\n        /* \"#utility.yul\":924:925   */\n      0x00\n        /* \"#utility.yul\":949:1002   */\n      tag_62\n        /* \"#utility.yul\":994:1001   */\n      dup5\n        /* \"#utility.yul\":985:991   */\n      dup3\n        /* \"#utility.yul\":974:983   */\n      dup6\n        /* \"#utility.yul\":970:992   */\n      add\n        /* \"#utility.yul\":949:1002   */\n      tag_34\n      jump\t// in\n    tag_62:\n        /* \"#utility.yul\":939:1002   */\n      swap2\n      pop\n        /* \"#utility.yul\":895:1012   */\n      pop\n        /* \"#utility.yul\":690:1019   */\n      swap3\n      swap2\n      pop\n      pop\n      jump\t// out\n        /* \"#utility.yul\":1025:1124   */\n    tag_35:\n        /* \"#utility.yul\":1077:1083   */\n      0x00\n        /* \"#utility.yul\":1111:1116   */\n      dup2\n        /* \"#utility.yul\":1105:1117   */\n      mload\n        /* \"#utility.yul\":1095:1117   */\n      swap1\n      pop\n        /* \"#utility.yul\":1025:1124   */\n      swap2\n      swap1\n      pop\n      jump\t// out\n        /* \"#utility.yul\":1130:1299   */\n    tag_36:\n        /* \"#utility.yul\":1214:1225   */\n      0x00\n        /* \"#utility.yul\":1248:1254   */\n      dup3\n        /* \"#utility.yul\":1243:1246   */\n      dup3\n        /* \"#utility.yul\":1236:1255   */\n      mstore\n        /* \"#utility.yul\":1288:1292   */\n      0x20\n        /* \"#utility.yul\":1283:1286   */\n      dup3\n        /* \"#utility.yul\":1279:1293   */\n      add\n        /* \"#utility.yul\":1264:1293   */\n      swap1\n      pop\n        /* \"#utility.yul\":1130:1299   */\n      swap3\n      swap2\n      pop\n      pop\n      jump\t// out\n        /* \"#utility.yul\":1305:1551   */\n    tag_37:\n        /* \"#utility.yul\":1386:1387   */\n      0x00\n        /* \"#utility.yul\":1396:1509   */\n    tag_66:\n        /* \"#utility.yul\":1410:1416   */\n      dup4\n        /* \"#utility.yul\":1407:1408   */\n      dup2\n        /* \"#utility.yul\":1404:1417   */\n      lt\n        /* \"#utility.yul\":1396:1509   */\n      iszero\n      tag_68\n      jumpi\n        /* \"#utility.yul\":1495:1496   */\n      dup1\n        /* \"#utility.yul\":1490:1493   */\n      dup3\n        /* \"#utility.yul\":1486:1497   */\n      add\n        /* \"#utility.yul\":1480:1498   */\n      mload\n        /* \"#utility.yul\":1476:1477   */\n      dup2\n        /* \"#utility.yul\":1471:1474   */\n      dup5\n        /* \"#utility.yul\":1467:1478   */\n      add\n        /* \"#utility.yul\":1460:1499   */\n      mstore\n        /* \"#utility.yul\":1432:1434   */\n      0x20\n        /* \"#utility.yul\":1429:1430   */\n      dup2\n        /* \"#utility.yul\":1425:1435   */\n      add\n        /* \"#utility.yul\":1420:1435   */\n      swap1\n      pop\n        /* \"#utility.yul\":1396:1509   */\n      jump(tag_66)\n    tag_68:\n        /* \"#utility.yul\":1543:1544   */\n      0x00\n        /* \"#utility.yul\":1534:1540   */\n      dup5\n        /* \"#utility.yul\":1529:1532   */\n      dup5\n        /* \"#utility.yul\":1525:1541   */\n      add\n        /* \"#utility.yul\":1518:1545   */\n      mstore\n        /* \"#utility.yul\":1367:1551   */\n      pop\n        /* \"#utility.yul\":1305:1551   */\n      pop\n      pop\n      pop\n      jump\t// out\n        /* \"#utility.yul\":1557:1659   */\n    tag_38:\n        /* \"#utility.yul\":1598:1604   */\n      0x00\n        /* \"#utility.yul\":1649:1651   */\n      0x1f\n        /* \"#utility.yul\":1645:1652   */\n      not\n        /* \"#utility.yul\":1640:1642   */\n      0x1f\n        /* \"#utility.yul\":1633:1638   */\n      dup4\n        /* \"#utility.yul\":1629:1643   */\n      add\n        /* \"#utility.yul\":1625:1653   */\n      and\n        /* \"#utility.yul\":1615:1653   */\n      swap1\n      pop\n        /* \"#utility.yul\":1557:1659   */\n      swap2\n      swap1\n      pop\n      jump\t// out\n        /* \"#utility.yul\":1665:2042   */\n    tag_39:\n        /* \"#utility.yul\":1753:1756   */\n      0x00\n        /* \"#utility.yul\":1781:1820   */\n      tag_71\n        /* \"#utility.yul\":1814:1819   */\n      dup3\n        /* \"#utility.yul\":1781:1820   */\n      tag_35\n      jump\t// in\n    tag_71:\n        /* \"#utility.yul\":1836:1907   */\n      tag_72\n        /* \"#utility.yul\":1900:1906   */\n      dup2\n        /* \"#utility.yul\":1895:1898   */\n      dup6\n        /* \"#utility.yul\":1836:1907   */\n      tag_36\n      jump\t// in\n    tag_72:\n        /* \"#utility.yul\":1829:1907   */\n      swap4\n      pop\n        /* \"#utility.yul\":1916:1981   */\n      tag_73\n        /* \"#utility.yul\":1974:1980   */\n      dup2\n        /* \"#utility.yul\":1969:1972   */\n      dup6\n        /* \"#utility.yul\":1962:1966   */\n      0x20\n        /* \"#utility.yul\":1955:1960   */\n      dup7\n        /* \"#utility.yul\":1951:1967   */\n      add\n        /* \"#utility.yul\":1916:1981   */\n      tag_37\n      jump\t// in\n    tag_73:\n        /* \"#utility.yul\":2006:2035   */\n      tag_74\n        /* \"#utility.yul\":2028:2034   */\n      dup2\n        /* \"#utility.yul\":2006:2035   */\n      tag_38\n      jump\t// in\n    tag_74:\n        /* \"#utility.yul\":2001:2004   */\n      dup5\n        /* \"#utility.yul\":1997:2036   */\n      add\n        /* \"#utility.yul\":1990:2036   */\n      swap2\n      pop\n        /* \"#utility.yul\":1757:2042   */\n      pop\n        /* \"#utility.yul\":1665:2042   */\n      swap3\n      swap2\n      pop\n      pop\n      jump\t// out\n        /* \"#utility.yul\":2048:2361   */\n    tag_10:\n        /* \"#utility.yul\":2161:2165   */\n      0x00\n        /* \"#utility.yul\":2199:2201   */\n      0x20\n        /* \"#utility.yul\":2188:2197   */\n      dup3\n        /* \"#utility.yul\":2184:2202   */\n      add\n        /* \"#utility.yul\":2176:2202   */\n      swap1\n      pop\n        /* \"#utility.yul\":2248:2257   */\n      dup2\n        /* \"#utility.yul\":2242:2246   */\n      dup2\n        /* \"#utility.yul\":2238:2258   */\n      sub\n        /* \"#utility.yul\":2234:2235   */\n      0x00\n        /* \"#utility.yul\":2223:2232   */\n      dup4\n        /* \"#utility.yul\":2219:2236   */\n      add\n        /* \"#utility.yul\":2212:2259   */\n      mstore\n        /* \"#utility.yul\":2276:2354   */\n      tag_76\n        /* \"#utility.yul\":2349:2353   */\n      dup2\n        /* \"#utility.yul\":2340:2346   */\n      dup5\n        /* \"#utility.yul\":2276:2354   */\n      tag_39\n      jump\t// in\n    tag_76:\n        /* \"#utility.yul\":2268:2354   */\n      swap1\n      pop\n        /* \"#utility.yul\":2048:2361   */\n      swap3\n      swap2\n      pop\n      pop\n      jump\t// out\n        /* \"#utility.yul\":2367:2457   */\n    tag_40:\n        /* \"#utility.yul\":2401:2408   */\n      0x00\n        /* \"#utility.yul\":2444:2449   */\n      dup2\n        /* \"#utility.yul\":2437:2450   */\n      iszero\n        /* \"#utility.yul\":2430:2451   */\n      iszero\n        /* \"#utility.yul\":2419:2451   */\n      swap1\n      pop\n        /* \"#utility.yul\":2367:2457   */\n      swap2\n      swap1\n      pop\n      jump\t// out\n        /* \"#utility.yul\":2463:2572   */\n    tag_41:\n        /* \"#utility.yul\":2544:2565   */\n      tag_79\n        /* \"#utility.yul\":2559:2564   */\n      dup2\n        /* \"#utility.yul\":2544:2565   */\n      tag_40\n      jump\t// in\n    tag_79:\n        /* \"#utility.yul\":2539:2542   */\n      dup3\n        /* \"#utility.yul\":2532:2566   */\n      mstore\n        /* \"#utility.yul\":2463:2572   */\n      pop\n      pop\n      jump\t// out\n        /* \"#utility.yul\":2578:2788   */\n    tag_15:\n        /* \"#utility.yul\":2665:2669   */\n      0x00\n        /* \"#utility.yul\":2703:2705   */\n      0x20\n        /* \"#utility.yul\":2692:2701   */\n      dup3\n        /* \"#utility.yul\":2688:2706   */\n      add\n        /* \"#utility.yul\":2680:2706   */\n      swap1\n      pop\n        /* \"#utility.yul\":2716:2781   */\n      tag_81\n        /* \"#utility.yul\":2778:2779   */\n      0x00\n        /* \"#utility.yul\":2767:2776   */\n      dup4\n        /* \"#utility.yul\":2763:2780   */\n      add\n        /* \"#utility.yul\":2754:2760   */\n      dup5\n        /* \"#utility.yul\":2716:2781   */\n      tag_41\n      jump\t// in\n    tag_81:\n        /* \"#utility.yul\":2578:2788   */\n      swap3\n      swap2\n      pop\n      pop\n      jump\t// out\n        /* \"#utility.yul\":2794:2957   */\n    tag_42:\n        /* \"#utility.yul\":2934:2949   */\n      0x696e76616c69642075696e743800000000000000000000000000000000000000\n        /* \"#utility.yul\":2930:2931   */\n      0x00\n        /* \"#utility.yul\":2922:2928   */\n      dup3\n        /* \"#utility.yul\":2918:2932   */\n      add\n        /* \"#utility.yul\":2911:2950   */\n      mstore\n        /* \"#utility.yul\":2794:2957   */\n      pop\n      jump\t// out\n        /* \"#utility.yul\":2963:3329   */\n    tag_43:\n        /* \"#utility.yul\":3105:3108   */\n      0x00\n        /* \"#utility.yul\":3126:3193   */\n      tag_84\n        /* \"#utility.yul\":3190:3192   */\n      0x0d\n        /* \"#utility.yul\":3185:3188   */\n      dup4\n        /* \"#utility.yul\":3126:3193   */\n      tag_36\n      jump\t// in\n    tag_84:\n        /* \"#utility.yul\":3119:3193   */\n      swap2\n      pop\n        /* \"#utility.yul\":3202:3295   */\n      tag_85\n        /* \"#utility.yul\":3291:3294   */\n      dup3\n        /* \"#utility.yul\":3202:3295   */\n      tag_42\n      jump\t// in\n    tag_85:\n        /* \"#utility.yul\":3320:3322   */\n      0x20\n        /* \"#utility.yul\":3315:3318   */\n      dup3\n        /* \"#utility.yul\":3311:3323   */\n      add\n        /* \"#utility.yul\":3304:3323   */\n      swap1\n      pop\n        /* \"#utility.yul\":2963:3329   */\n      swap2\n      swap1\n      pop\n      jump\t// out\n        /* \"#utility.yul\":3335:3754   */\n    tag_19:\n        /* \"#utility.yul\":3501:3505   */\n      0x00\n        /* \"#utility.yul\":3539:3541   */\n      0x20\n        /* \"#utility.yul\":3528:3537   */\n      dup3\n        /* \"#utility.yul\":3524:3542   */\n      add\n        /* \"#utility.yul\":3516:3542   */\n      swap1\n      pop\n        /* \"#utility.yul\":3588:3597   */\n      dup2\n        /* \"#utility.yul\":3582:3586   */\n      dup2\n        /* \"#utility.yul\":3578:3598   */\n      sub\n        /* \"#utility.yul\":3574:3575   */\n      0x00\n        /* \"#utility.yul\":3563:3572   */\n      dup4\n        /* \"#utility.yul\":3559:3576   */\n      add\n        /* \"#utility.yul\":3552:3599   */\n      mstore\n        /* \"#utility.yul\":3616:3747   */\n      tag_87\n        /* \"#utility.yul\":3742:3746   */\n      dup2\n        /* \"#utility.yul\":3616:3747   */\n      tag_43\n      jump\t// in\n    tag_87:\n        /* \"#utility.yul\":3608:3747   */\n      swap1\n      pop\n        /* \"#utility.yul\":3335:3754   */\n      swap2\n      swap1\n      pop\n      jump\t// out\n        /* \"#utility.yul\":3760:3922   */\n    tag_44:\n        /* \"#utility.yul\":3900:3914   */\n      0x696e76616c69642075696e740000000000000000000000000000000000000000\n        /* \"#utility.yul\":3896:3897   */\n      0x00\n        /* \"#utility.yul\":3888:3894   */\n      dup3\n        /* \"#utility.yul\":3884:3898   */\n      add\n        /* \"#utility.yul\":3877:3915   */\n      mstore\n        /* \"#utility.yul\":3760:3922   */\n      pop\n      jump\t// out\n        /* \"#utility.yul\":3928:4294   */\n    tag_45:\n        /* \"#utility.yul\":4070:4073   */\n      0x00\n        /* \"#utility.yul\":4091:4158   */\n      tag_90\n        /* \"#utility.yul\":4155:4157   */\n      0x0c\n        /* \"#utility.yul\":4150:4153   */\n      dup4\n        /* \"#utility.yul\":4091:4158   */\n      tag_36\n      jump\t// in\n    tag_90:\n        /* \"#utility.yul\":4084:4158   */\n      swap2\n      pop\n        /* \"#utility.yul\":4167:4260   */\n      tag_91\n        /* \"#utility.yul\":4256:4259   */\n      dup3\n        /* \"#utility.yul\":4167:4260   */\n      tag_44\n      jump\t// in\n    tag_91:\n        /* \"#utility.yul\":4285:4287   */\n      0x20\n        /* \"#utility.yul\":4280:4283   */\n      dup3\n        /* \"#utility.yul\":4276:4288   */\n      add\n        /* \"#utility.yul\":4269:4288   */\n      swap1\n      pop\n        /* \"#utility.yul\":3928:4294   */\n      swap2\n      swap1\n      pop\n      jump\t// out\n        /* \"#utility.yul\":4300:4719   */\n    tag_22:\n        /* \"#utility.yul\":4466:4470   */\n      0x00\n        /* \"#utility.yul\":4504:4506   */\n      0x20\n        /* \"#utility.yul\":4493:4502   */\n      dup3\n        /* \"#utility.yul\":4489:4507   */\n      add\n        /* \"#utility.yul\":4481:4507   */\n      swap1\n      pop\n        /* \"#utility.yul\":4553:4562   */\n      dup2\n        /* \"#utility.yul\":4547:4551   */\n      dup2\n        /* \"#utility.yul\":4543:4563   */\n      sub\n        /* \"#utility.yul\":4539:4540   */\n      0x00\n        /* \"#utility.yul\":4528:4537   */\n      dup4\n        /* \"#utility.yul\":4524:4541   */\n      add\n        /* \"#utility.yul\":4517:4564   */\n      mstore\n        /* \"#utility.yul\":4581:4712   */\n      tag_93\n        /* \"#utility.yul\":4707:4711   */\n      dup2\n        /* \"#utility.yul\":4581:4712   */\n      tag_45\n      jump\t// in\n    tag_93:\n        /* \"#utility.yul\":4573:4712   */\n      swap1\n      pop\n        /* \"#utility.yul\":4300:4719   */\n      swap2\n      swap1\n      pop\n      jump\t// out\n        /* \"#utility.yul\":4725:4905   */\n    tag_46:\n        /* \"#utility.yul\":4773:4850   */\n      0x4e487b7100000000000000000000000000000000000000000000000000000000\n        /* \"#utility.yul\":4770:4771   */\n      0x00\n        /* \"#utility.yul\":4763:4851   */\n      mstore\n        /* \"#utility.yul\":4870:4874   */\n      0x12\n        /* \"#utility.yul\":4867:4868   */\n      0x04\n        /* \"#utility.yul\":4860:4875   */\n      mstore\n        /* \"#utility.yul\":4894:4898   */\n      0x24\n        /* \"#utility.yul\":4891:4892   */\n      0x00\n        /* \"#utility.yul\":4884:4899   */\n      revert\n        /* \"#utility.yul\":4911:5087   */\n    tag_25:\n        /* \"#utility.yul\":4943:4944   */\n      0x00\n        /* \"#utility.yul\":4960:4980   */\n      tag_96\n        /* \"#utility.yul\":4978:4979   */\n      dup3\n        /* \"#utility.yul\":4960:4980   */\n      tag_32\n      jump\t// in\n    tag_96:\n        /* \"#utility.yul\":4955:4980   */\n      swap2\n      pop\n        /* \"#utility.yul\":4994:5014   */\n      tag_97\n        /* \"#utility.yul\":5012:5013   */\n      dup4\n        /* \"#utility.yul\":4994:5014   */\n      tag_32\n      jump\t// in\n    tag_97:\n        /* \"#utility.yul\":4989:5014   */\n      swap3\n      pop\n        /* \"#utility.yul\":5033:5034   */\n      dup3\n        /* \"#utility.yul\":5023:5058   */\n      tag_98\n      jumpi\n        /* \"#utility.yul\":5038:5056   */\n      tag_99\n      tag_46\n      jump\t// in\n    tag_99:\n        /* \"#utility.yul\":5023:5058   */\n    tag_98:\n        /* \"#utility.yul\":5079:5080   */\n      dup3\n        /* \"#utility.yul\":5076:5077   */\n      dup3\n        /* \"#utility.yul\":5072:5081   */\n      mod\n        /* \"#utility.yul\":5067:5081   */\n      swap1\n      pop\n        /* \"#utility.yul\":4911:5087   */\n      swap3\n      swap2\n      pop\n      pop\n      jump\t// out\n        /* \"#utility.yul\":5093:5256   */\n    tag_47:\n        /* \"#utility.yul\":5233:5248   */\n      0x696e707574206973206576656e00000000000000000000000000000000000000\n        /* \"#utility.yul\":5229:5230   */\n      0x00\n        /* \"#utility.yul\":5221:5227   */\n      dup3\n        /* \"#utility.yul\":5217:5231   */\n      add\n        /* \"#utility.yul\":5210:5249   */\n      mstore\n        /* \"#utility.yul\":5093:5256   */\n      pop\n      jump\t// out\n        /* \"#utility.yul\":5262:5628   */\n    tag_48:\n        /* \"#utility.yul\":5404:5407   */\n      0x00\n        /* \"#utility.yul\":5425:5492   */\n      tag_102\n        /* \"#utility.yul\":5489:5491   */\n      0x0d\n        /* \"#utility.yul\":5484:5487   */\n      dup4\n        /* \"#utility.yul\":5425:5492   */\n      tag_36\n      jump\t// in\n    tag_102:\n        /* \"#utility.yul\":5418:5492   */\n      swap2\n      pop\n        /* \"#utility.yul\":5501:5594   */\n      tag_103\n        /* \"#utility.yul\":5590:5593   */\n      dup3\n        /* \"#utility.yul\":5501:5594   */\n      tag_47\n      jump\t// in\n    tag_103:\n        /* \"#utility.yul\":5619:5621   */\n      0x20\n        /* \"#utility.yul\":5614:5617   */\n      dup3\n        /* \"#utility.yul\":5610:5622   */\n      add\n        /* \"#utility.yul\":5603:5622   */\n      swap1\n      pop\n        /* \"#utility.yul\":5262:5628   */\n      swap2\n      swap1\n      pop\n      jump\t// out\n        /* \"#utility.yul\":5634:6053   */\n    tag_28:\n        /* \"#utility.yul\":5800:5804   */\n      0x00\n        /* \"#utility.yul\":5838:5840   */\n      0x20\n        /* \"#utility.yul\":5827:5836   */\n      dup3\n        /* \"#utility.yul\":5823:5841   */\n      add\n        /* \"#utility.yul\":5815:5841   */\n      swap1\n      pop\n        /* \"#utility.yul\":5887:5896   */\n      dup2\n        /* \"#utility.yul\":5881:5885   */\n      dup2\n        /* \"#utility.yul\":5877:5897   */\n      sub\n        /* \"#utility.yul\":5873:5874   */\n      0x00\n        /* \"#utility.yul\":5862:5871   */\n      dup4\n        /* \"#utility.yul\":5858:5875   */\n      add\n        /* \"#utility.yul\":5851:5898   */\n      mstore\n        /* \"#utility.yul\":5915:6046   */\n      tag_105\n        /* \"#utility.yul\":6041:6045   */\n      dup2\n        /* \"#utility.yul\":5915:6046   */\n      tag_48\n      jump\t// in\n    tag_105:\n        /* \"#utility.yul\":5907:6046   */\n      swap1\n      pop\n        /* \"#utility.yul\":5634:6053   */\n      swap2\n      swap1\n      pop\n      jump\t// out\n\n    auxdata: 0xa264697066735822122081ac9abca2372dc98067ece407cf9e2648ee49939a08bf645a47f1ad33805e3664736f6c63430008180033\n}\n",
				"bytecode": {
					"linkReferences": {},
					"object": "608060405234801561000f575f80fd5b506104c08061001d5f395ff3fe608060405234801561000f575f80fd5b5060043610610034575f3560e01c8063021b8a7f146100385780630602c36a14610068575b5f80fd5b610052600480360381019061004d91906101ed565b610098565b60405161005f91906102a2565b60405180910390f35b610082600480360381019061007d91906101ed565b61015e565b60405161008f91906102dc565b60405180910390f35b60605f8210156100dd576040517f08c379a00000000000000000000000000000000000000000000000000000000081526004016100d49061033f565b60405180910390fd5b60ff821115610121576040517f08c379a0000000000000000000000000000000000000000000000000000000008152600401610118906103a7565b60405180910390fd5b6040518060400160405280600e81526020017f696e70757420696e2075696e74380000000000000000000000000000000000008152509050919050565b5f8060028361016d91906103f2565b036101ad576040517f08c379a00000000000000000000000000000000000000000000000000000000081526004016101a49061046c565b60405180910390fd5b60019050919050565b5f80fd5b5f819050919050565b6101cc816101ba565b81146101d6575f80fd5b50565b5f813590506101e7816101c3565b92915050565b5f60208284031215610202576102016101b6565b5b5f61020f848285016101d9565b91505092915050565b5f81519050919050565b5f82825260208201905092915050565b5f5b8381101561024f578082015181840152602081019050610234565b5f8484015250505050565b5f601f19601f8301169050919050565b5f61027482610218565b61027e8185610222565b935061028e818560208601610232565b6102978161025a565b840191505092915050565b5f6020820190508181035f8301526102ba818461026a565b905092915050565b5f8115159050919050565b6102d6816102c2565b82525050565b5f6020820190506102ef5f8301846102cd565b92915050565b7f696e76616c69642075696e7438000000000000000000000000000000000000005f82015250565b5f610329600d83610222565b9150610334826102f5565b602082019050919050565b5f6020820190508181035f8301526103568161031d565b9050919050565b7f696e76616c69642075696e7400000000000000000000000000000000000000005f82015250565b5f610391600c83610222565b915061039c8261035d565b602082019050919050565b5f6020820190508181035f8301526103be81610385565b9050919050565b7f4e487b71000000000000000000000000000000000000000000000000000000005f52601260045260245ffd5b5f6103fc826101ba565b9150610407836101ba565b925082610417576104166103c5565b5b828206905092915050565b7f696e707574206973206576656e000000000000000000000000000000000000005f82015250565b5f610456600d83610222565b915061046182610422565b602082019050919050565b5f6020820190508181035f8301526104838161044a565b905091905056fea264697066735822122081ac9abca2372dc98067ece407cf9e2648ee49939a08bf645a47f1ad33805e3664736f6c63430008180033",
					"opcodes": "PUSH1 0x80 PUSH1 0x40 MSTORE CALLVALUE DUP1 ISZERO PUSH2 0xF JUMPI PUSH0 DUP1 REVERT JUMPDEST POP PUSH2 0x4C0 DUP1 PUSH2 0x1D PUSH0 CODECOPY PUSH0 RETURN INVALID PUSH1 0x80 PUSH1 0x40 MSTORE CALLVALUE DUP1 ISZERO PUSH2 0xF JUMPI PUSH0 DUP1 REVERT JUMPDEST POP PUSH1 0x4 CALLDATASIZE LT PUSH2 0x34 JUMPI PUSH0 CALLDATALOAD PUSH1 0xE0 SHR DUP1 PUSH4 0x21B8A7F EQ PUSH2 0x38 JUMPI DUP1 PUSH4 0x602C36A EQ PUSH2 0x68 JUMPI JUMPDEST PUSH0 DUP1 REVERT JUMPDEST PUSH2 0x52 PUSH1 0x4 DUP1 CALLDATASIZE SUB DUP2 ADD SWAP1 PUSH2 0x4D SWAP2 SWAP1 PUSH2 0x1ED JUMP JUMPDEST PUSH2 0x98 JUMP JUMPDEST PUSH1 0x40 MLOAD PUSH2 0x5F SWAP2 SWAP1 PUSH2 0x2A2 JUMP JUMPDEST PUSH1 0x40 MLOAD DUP1 SWAP2 SUB SWAP1 RETURN JUMPDEST PUSH2 0x82 PUSH1 0x4 DUP1 CALLDATASIZE SUB DUP2 ADD SWAP1 PUSH2 0x7D SWAP2 SWAP1 PUSH2 0x1ED JUMP JUMPDEST PUSH2 0x15E JUMP JUMPDEST PUSH1 0x40 MLOAD PUSH2 0x8F SWAP2 SWAP1 PUSH2 0x2DC JUMP JUMPDEST PUSH1 0x40 MLOAD DUP1 SWAP2 SUB SWAP1 RETURN JUMPDEST PUSH1 0x60 PUSH0 DUP3 LT ISZERO PUSH2 0xDD JUMPI PUSH1 0x40 MLOAD PUSH32 0x8C379A000000000000000000000000000000000000000000000000000000000 DUP2 MSTORE PUSH1 0x4 ADD PUSH2 0xD4 SWAP1 PUSH2 0x33F JUMP JUMPDEST PUSH1 0x40 MLOAD DUP1 SWAP2 SUB SWAP1 REVERT JUMPDEST PUSH1 0xFF DUP3 GT ISZERO PUSH2 0x121 JUMPI PUSH1 0x40 MLOAD PUSH32 0x8C379A000000000000000000000000000000000000000000000000000000000 DUP2 MSTORE PUSH1 0x4 ADD PUSH2 0x118 SWAP1 PUSH2 0x3A7 JUMP JUMPDEST PUSH1 0x40 MLOAD DUP1 SWAP2 SUB SWAP1 REVERT JUMPDEST PUSH1 0x40 MLOAD DUP1 PUSH1 0x40 ADD PUSH1 0x40 MSTORE DUP1 PUSH1 0xE DUP2 MSTORE PUSH1 0x20 ADD PUSH32 0x696E70757420696E2075696E7438000000000000000000000000000000000000 DUP2 MSTORE POP SWAP1 POP SWAP2 SWAP1 POP JUMP JUMPDEST PUSH0 DUP1 PUSH1 0x2 DUP4 PUSH2 0x16D SWAP2 SWAP1 PUSH2 0x3F2 JUMP JUMPDEST SUB PUSH2 0x1AD JUMPI PUSH1 0x40 MLOAD PUSH32 0x8C379A000000000000000000000000000000000000000000000000000000000 DUP2 MSTORE PUSH1 0x4 ADD PUSH2 0x1A4 SWAP1 PUSH2 0x46C JUMP JUMPDEST PUSH1 0x40 MLOAD DUP1 SWAP2 SUB SWAP1 REVERT JUMPDEST PUSH1 0x1 SWAP1 POP SWAP2 SWAP1 POP JUMP JUMPDEST PUSH0 DUP1 REVERT JUMPDEST PUSH0 DUP2 SWAP1 POP SWAP2 SWAP1 POP JUMP JUMPDEST PUSH2 0x1CC DUP2 PUSH2 0x1BA JUMP JUMPDEST DUP2 EQ PUSH2 0x1D6 JUMPI PUSH0 DUP1 REVERT JUMPDEST POP JUMP JUMPDEST PUSH0 DUP2 CALLDATALOAD SWAP1 POP PUSH2 0x1E7 DUP2 PUSH2 0x1C3 JUMP JUMPDEST SWAP3 SWAP2 POP POP JUMP JUMPDEST PUSH0 PUSH1 0x20 DUP3 DUP5 SUB SLT ISZERO PUSH2 0x202 JUMPI PUSH2 0x201 PUSH2 0x1B6 JUMP JUMPDEST JUMPDEST PUSH0 PUSH2 0x20F DUP5 DUP3 DUP6 ADD PUSH2 0x1D9 JUMP JUMPDEST SWAP2 POP POP SWAP3 SWAP2 POP POP JUMP JUMPDEST PUSH0 DUP2 MLOAD SWAP1 POP SWAP2 SWAP1 POP JUMP JUMPDEST PUSH0 DUP3 DUP3 MSTORE PUSH1 0x20 DUP3 ADD SWAP1 POP SWAP3 SWAP2 POP POP JUMP JUMPDEST PUSH0 JUMPDEST DUP4 DUP2 LT ISZERO PUSH2 0x24F JUMPI DUP1 DUP3 ADD MLOAD DUP2 DUP5 ADD MSTORE PUSH1 0x20 DUP2 ADD SWAP1 POP PUSH2 0x234 JUMP JUMPDEST PUSH0 DUP5 DUP5 ADD MSTORE POP POP POP POP JUMP JUMPDEST PUSH0 PUSH1 0x1F NOT PUSH1 0x1F DUP4 ADD AND SWAP1 POP SWAP2 SWAP1 POP JUMP JUMPDEST PUSH0 PUSH2 0x274 DUP3 PUSH2 0x218 JUMP JUMPDEST PUSH2 0x27E DUP2 DUP6 PUSH2 0x222 JUMP JUMPDEST SWAP4 POP PUSH2 0x28E DUP2 DUP6 PUSH1 0x20 DUP7 ADD PUSH2 0x232 JUMP JUMPDEST PUSH2 0x297 DUP2 PUSH2 0x25A JUMP JUMPDEST DUP5 ADD SWAP2 POP POP SWAP3 SWAP2 POP POP JUMP JUMPDEST PUSH0 PUSH1 0x20 DUP3 ADD SWAP1 POP DUP2 DUP2 SUB PUSH0 DUP4 ADD MSTORE PUSH2 0x2BA DUP2 DUP5 PUSH2 0x26A JUMP JUMPDEST SWAP1 POP SWAP3 SWAP2 POP POP JUMP JUMPDEST PUSH0 DUP2 ISZERO ISZERO SWAP1 POP SWAP2 SWAP1 POP JUMP JUMPDEST PUSH2 0x2D6 DUP2 PUSH2 0x2C2 JUMP JUMPDEST DUP3 MSTORE POP POP JUMP JUMPDEST PUSH0 PUSH1 0x20 DUP3 ADD SWAP1 POP PUSH2 0x2EF PUSH0 DUP4 ADD DUP5 PUSH2 0x2CD JUMP JUMPDEST SWAP3 SWAP2 POP POP JUMP JUMPDEST PUSH32 0x696E76616C69642075696E743800000000000000000000000000000000000000 PUSH0 DUP3 ADD MSTORE POP JUMP JUMPDEST PUSH0 PUSH2 0x329 PUSH1 0xD DUP4 PUSH2 0x222 JUMP JUMPDEST SWAP2 POP PUSH2 0x334 DUP3 PUSH2 0x2F5 JUMP JUMPDEST PUSH1 0x20 DUP3 ADD SWAP1 POP SWAP2 SWAP1 POP JUMP JUMPDEST PUSH0 PUSH1 0x20 DUP3 ADD SWAP1 POP DUP2 DUP2 SUB PUSH0 DUP4 ADD MSTORE PUSH2 0x356 DUP2 PUSH2 0x31D JUMP JUMPDEST SWAP1 POP SWAP2 SWAP1 POP JUMP JUMPDEST PUSH32 0x696E76616C69642075696E740000000000000000000000000000000000000000 PUSH0 DUP3 ADD MSTORE POP JUMP JUMPDEST PUSH0 PUSH2 0x391 PUSH1 0xC DUP4 PUSH2 0x222 JUMP JUMPDEST SWAP2 POP PUSH2 0x39C DUP3 PUSH2 0x35D JUMP JUMPDEST PUSH1 0x20 DUP3 ADD SWAP1 POP SWAP2 SWAP1 POP JUMP JUMPDEST PUSH0 PUSH1 0x20 DUP3 ADD SWAP1 POP DUP2 DUP2 SUB PUSH0 DUP4 ADD MSTORE PUSH2 0x3BE DUP2 PUSH2 0x385 JUMP JUMPDEST SWAP1 POP SWAP2 SWAP1 POP JUMP JUMPDEST PUSH32 0x4E487B7100000000000000000000000000000000000000000000000000000000 PUSH0 MSTORE PUSH1 0x12 PUSH1 0x4 MSTORE PUSH1 0x24 PUSH0 REVERT JUMPDEST PUSH0 PUSH2 0x3FC DUP3 PUSH2 0x1BA JUMP JUMPDEST SWAP2 POP PUSH2 0x407 DUP4 PUSH2 0x1BA JUMP JUMPDEST SWAP3 POP DUP3 PUSH2 0x417 JUMPI PUSH2 0x416 PUSH2 0x3C5 JUMP JUMPDEST JUMPDEST DUP3 DUP3 MOD SWAP1 POP SWAP3 SWAP2 POP POP JUMP JUMPDEST PUSH32 0x696E707574206973206576656E00000000000000000000000000000000000000 PUSH0 DUP3 ADD MSTORE POP JUMP JUMPDEST PUSH0 PUSH2 0x456 PUSH1 0xD DUP4 PUSH2 0x222 JUMP JUMPDEST SWAP2 POP PUSH2 0x461 DUP3 PUSH2 0x422 JUMP JUMPDEST PUSH1 0x20 DUP3 ADD SWAP1 POP SWAP2 SWAP1 POP JUMP JUMPDEST PUSH0 PUSH1 0x20 DUP3 ADD SWAP1 POP DUP2 DUP2 SUB PUSH0 DUP4 ADD MSTORE PUSH2 0x483 DUP2 PUSH2 0x44A JUMP JUMPDEST SWAP1 POP SWAP2 SWAP1 POP JUMP INVALID LOG2 PUSH5 0x6970667358 0x22 SLT KECCAK256 DUP2 0xAC SWAP11 0xBC LOG2 CALLDATACOPY 0x2D 0xC9 DUP1 PUSH8 0xECE407CF9E2648EE BLOBHASH SWAP4 SWAP11 ADDMOD 0xBF PUSH5 0x5A47F1AD33 DUP1 MCOPY CALLDATASIZE PUSH5 0x736F6C6343 STOP ADDMOD XOR STOP CALLER "
				},
				"gasEstimates": {
					"creation": {
						"codeDepositCost": "243200",
						"executionCost": "279",
						"totalCost": "243479"
					},
					"external": {
						"checkInput(uint256)": "infinite",
						"odd(uint256)": "infinite"
					}
				},
				"methodIdentifiers": {
					"checkInput(uint256)": "021b8a7f",
					"odd(uint256)": "0602c36a"
				}
			},
			"storageLayout": {
				"storage": [],
				"types": null
			},
			"userdoc": {
				"kind": "user",
				"methods": {},
				"version": 1
			}
		}
	}
}